:020000040800F2
:1000000088060020B5010008450600083D060008E6
:1000100041060008710200085906000800000000AF
:100020000000000000000000000000004D06000875
:10003000750200080000000049060008510600088B
:10004000CF010008CF010008CF010008CF01000850
:10005000CF010008CF010008CF010008CF01000840
:10006000CF010008CF010008CF010008CF01000830
:10007000CF010008CF010008CF010008CF01000820
:10008000CF010008CF010008CF010008CF01000810
:10009000CF010008CF010008CF010008CF01000800
:1000A000CF010008CF010008CF010008CF010008F0
:1000B000CF010008CF010008CF010008CF010008E0
:1000C000CF010008CF010008CF010008CF010008D0
:1000D000CF010008CF010008CF010008CF010008C0
:1000E000CF010008CF010008CF01000800F002F89E
:1000F00000F050F814A696E8000CB244B344DA4578
:1001000001D100F047F8BAE80F000FA696E83000DA
:10011000A5EB040504EB0607AAEB0704A7F101070A
:100120004FEA15154FEA3414A4F10104AC4201D38F
:1001300000F030F813F0010F18BFFB1A43F0010371
:1001400000F001F8DBE7184788050000A80500006B
:10015000103A24BF78C878C1FAD8520724BF30C8F3
:1001600030C144BF04680C60704700007047000055
:100170000023002400250026103A28BF78C1FBD8B0
:10018000520728BF30C148BF0B6070471FB51FBD65
:1001900010B510BD00F031F81146FFF7F7FF00F081
:1001A0005DFA00F04FF803B4FFF7F2FF03BC00F074
:1001B00057F800000948804709480047FEE7FEE776
:1001C000FEE7FEE7FEE7FEE7FEE7FEE7FEE7FEE707
:1001D00004480549054A064B7047000055060008CB
:1001E000ED0000088800002088060020880200201A
:1001F00088020020704770477047754600F02CF861
:10020000AE4605006946534620F00700854618B003
:1002100020B5FFF7DDFFBDE820404FF000064FF0AE
:1002200000074FF000084FF0000BAC46ACE8C009E7
:10023000ACE8C009ACE8C009ACE8C00921F007018E
:100240008D46704710B50446AFF300802046BDE8E8
:100250001040FFF7A8BF00000048704710000020C2
:1002600001491820ABBEFEE72600020070470000DF
:10027000FEE7000070470000B0B5044600F01EF92C
:10028000054640F20000C2F200000078611C18BF71
:10029000044400BF00F012F9401BA042FAD3B0BDE5
:1002A0002DE9F04F82B00E68002E00F0FD8041F283
:1002B0000042C4F20102042340F2004E904208BF03
:1002C00003234FF6FF7CC4F2010E009300240123A8
:1002D000C1F2100C4FF0000A4FF0000944E000BFDB
:1002E000012704F00C030F229A402BEA020207FABE
:1002F00003F34FEA9A051A4346F825204E6840F268
:100300000C45F202DEF8082054BF22EA080242EA55
:100310000802C4F20105CEF808202A68B30254BFCF
:1003200022EA080242EA08022A60B303DEF8042047
:1003300054BF22EA080242EA0802F303CEF804207E
:10034000DEF800204FF0010354BF22EA080242EA1F
:100350000802CEF800200E680AF1010A36FA0AF205
:1003600004F1040400F0A08003FA0AFB16EA0B086B
:10037000F1D04E68664511DC122E55D8DFE806F044
:10038000340A4448545454545454545454545454B3
:10039000544C5000D1F80C9046E000BF4FF6FF726D
:1003A000C1F2210296420FDC0022C1F211029642F4
:1003B0001AD00022C1F21202964215D00022C1F2D8
:1003C0002102964210D02FE00022C1F22202964272
:1003D0000AD00022C1F23102964205D00022C1F2B9
:1003E0003202964220D100BF8A684AB1012A14BF66
:1003F000C0F814B0C0F810B04FF0080914E000BF06
:100400004FF0040910E000BFCA6802F108090BE0D0
:100410004FF0000908E000BFCA6802F1040903E0D8
:10042000CA6802F10C0900BF22460646B8F5807F73
:1004300024BF203A043637680F25954027EA050582
:1004400009FA02F22A433260CA79D2067FF583AFF5
:1004500041F21803C4F202031A68AEF57E7642F048
:1004600001021A601A6802F001020192019A2AF050
:10047000030256F802B040F60002C4F201029042B4
:1004800010D040F60042C4F2010290423FF428AF7F
:1004900041F20002C4F20102009F904208BF02270D
:1004A0001FE700BF00271CE702B0BDE8F08F000087
:1004B000002A08BF090401617047000040F2800073
:1004C000C2F200000068704740F2000040F2800174
:1004D000C2F20000C2F2000100780A68104408600D
:1004E0007047000080B542F20000C4F202000168CB
:1004F00041F010010160032000F07AF80F2000F0B5
:1005000005F800F027F8002080BD000070B540F22B
:100510000006C2F2000640F208013278C2F2000181
:100520004FF47A730968B3FBF2F20446B1FBF2F1BF
:10053000084600F06DF80F2C4FF0010508D838B9C7
:100540004FF0FF3021460022002500F025F87460AE
:10055000284670BD82B041F21800C4F20200016862
:10056000042241F001010160016801F001010191E3
:100570000199416841F080514160406800F080502D
:10058000009000980420C4F20100016862F31A612F
:10059000016002B07047000010B54EF60C5CCEF260
:1005A000000CDCF80030C3F3022E8EF00704042C9C
:1005B00028BF0424BEF103034FF0FF3E0EFA04F4FB
:1005C00038BF0023A14399400EFA03F39A43114325
:1005D00000F00F0200F160430901043A03F564439F
:1005E0006244002848BF02F10C03197010BD0000DE
:1005F0004EF60C51CEF200010A684FF6FF031A4086
:1006000060F30A2242F0806040F0FD70086070479D
:10061000411E0020B0EB116F1CBF012070474EF24D
:100620001002CEF2000251604EF62351CEF20001CC
:10063000F0230B700721906011607047FEE7000007
:10064000FEE70000FEE70000704700007047000072
:10065000FFF73ABF70470000FEE7000082B040F6A7
:100660000044C4F20104FFF73DFF41F21800C4F258
:1006700002000168012241F008010160006840F2B7
:10068000700100F0080001900198C2F200014FF4DF
:10069000007000234FF0020C81E80D102046FFF798
:1006A000FFFD00BF20464FF400710122FFF700FF5D
:1006B0004FF4FA70FFF7E0FD20464FF4007100227E
:1006C000FFF7F6FE4FF4FA70FFF7D6FDEAE70000F9
:1006D000F006000800000020100000005001000893
:1006E00000070008100000207806000070010008D4
:1006F00001000000100000000024F40000000000D1
:04000005080000ED02
:00000001FF
